:020000040800F2
:10000000C00D0020C5000008891D0008D318000895
:1000100000000000000000000000000000000000E0
:100020000000000000000000000000008D1D00081E
:1000300000000000000000008B1D00088F1D00085C
:10004000D700000800000000D7000008D700000813
:10005000D700000845020008D70000085502000834
:1000600000000000D7000008D7000008D7000008F3
:10007000D7000008191E0008D70000080000000083
:10008000291E00080000000000000000D700000842
:1000900000000000091E0008D7000008D700000873
:1000A00000000000D7000008000000009D250008A7
:1000B0000348854600F0B4F8004800477929000855
:1000C000C00D00200448804704480047FEE7FEE7D3
:1000D000FEE7FEE7FEE7FEE7051E0008B1000008A8
:1000E00030B50B46014600202022012409E00D46D0
:1000F000D5409D4205D31D469540491B2546954058
:1001000040191546521E002DF1DC30BD70B500249B
:100110002546002801DA01244042002901DA0125A0
:100120004942FFF7DDFFAC4200D04042002C00D036
:10013000494270BDF0B51FB40646002082B00546A6
:100140004024019100901BE0019922460F46304661
:1001500000F020F8049A059B801A994110D31046AC
:100160001946224600F04CF8361A8F410197224674
:1001700001200021009F00F043F838184D41009005
:100180002046641E0028DFDC019B00982946324689
:1001900007B0F0BD10B5202A04DB0846203AD04055
:1001A000002110BD0B46D340D0402024A21A91401C
:1001B0000843194610BD00000549064A0868504327
:1001C000054A801808604008704701490860704778
:1001D000500000206D4EC64139300000D2B201E01F
:1001E0000270401C491EFBD270470022F6E710B592
:1001F00013460A4604461946FFF7F0FF204610BD95
:1002000010B5202A04DB0146203A9140002010BDA1
:10021000914020239C1A0346E3401943904010BDAF
:10022000064C0125064E05E0E36807CC2B430C3C49
:1002300098471034B442F7D3FFF73EFFA0320008CE
:10024000C032000810B5012000F080F8022000F054
:100250007DF810BD10B5402000F078F8802000F047
:1002600075F810BD72B6FEE730B5014620314B7807
:100270000022022B04D0042383630A70012030BDC6
:1002800003681C680E25AC431C6003681C68640886
:1002900064001C600123056C1C46C06BAC404460CC
:1002A0004B700A70002030BD70B50024014620312B
:1002B0004A78022A03D004218163012416E00268EF
:1002C00013680E25AB431360026813685B085B007C
:1002D00013600122056C1346AB40C56B6B604A701E
:1002E00000220A70416B002900D08847204670BD6B
:1002F00070B5044600F0FCF80546601C02D00448C6
:100300000078241800F0F4F8401BA042FAD370BD26
:10031000400000200C4940280A7C09D080280BD0DE
:1003200002280DD0012802D1042A00D008607047AD
:10033000012AFCD00420F9E7032AF8D00220F5E7CF
:10034000022AF4D00320F1E72C00002010B5044964
:100350004A69024202D04861FFF7DCFF10BD00008D
:1003600000040140FCB500230124A1E027462A46F1
:100370009F403A4073D04D68012D05D0022D03D027
:10038000112D01D0122D16D185680326AC465D00D3
:10039000AE46AE406546B543AC46CE687546AE4007
:1003A00065462E43866046680D79BE43ED06ED0F27
:1003B0009D4035434560C6685F000325BD40AE469D
:1003C000AE4335468E68BE402E43C6604E68022E50
:1003D00001D0122E14D1DE08B60036180196366A06
:1003E0005D07B446EE0E0F25B54000966646AE4357
:1003F000B4460D69009EB54066462E43019D2E62AF
:1004000006687546AE430D79AD07AD0FBD40354367
:1004100005604D68ED004AD5284DAE692643AE61B2
:10042000AD699E08ED07ED0F0095254DB6007519D5
:10043000AC46AD689E07360F0F27B740BD4309276E
:10044000FF06B84201D1002710E01E4FB84201D18B
:1004500001270BE01C4FB84202D1022706E026E03C
:100460001A4FB84201D1032700E00527B7402F43B8
:100470006546AF60164E35684F689543FF0300D55B
:100480001543356075684F689543BF0300D5154324
:100490007560B5684F689543FF0200D51543B56098
:1004A000F5684F689543BF0200D51543F5605B1CA6
:1004B0000A681546DA4000D058E7FCBD001002403B
:1004C000000001400004004800080048000C0048FB
:1004D00000040140426913460B401B0491430B4347
:1004E00083617047002A01D0816170478162704743
:1004F00001488068704700004000002070B5024647
:1005000040325378202B1CD11378012B19D00123B2
:10051000137024245470046825689D432560046882
:1005200025681E03B5432560046825680D432560D2
:10053000006801681943016020205070002010708D
:1005400070BD022070BD70B5024640325378202B3A
:100550001BD11378012B18D001241470242353705D
:1005600003681D68A5431D6005682B680F263602C9
:10057000B3430902194329600068016821430160FF
:10058000202050700020107070BD022070BD00004F
:1005900070B5040006D0254640356878002600284E
:1005A00002D005E0012070BD2E70204600F0F0F86A
:1005B00024206870206801684908490001600F2103
:1005C0006068090688432168086121688A680120FB
:1005D000C00382438A60E1680129A16808D0212212
:1005E0009202114322689160E168022902D005E07D
:1005F0000143F7E701212268C902516021684A6876
:100600000F4B1A434A602168CA688243CA60616915
:1006100020690843A169090208432168C860216A6A
:10062000E0690843216808602068016801221143DD
:1006300001606664202068702663AE70002070BD83
:1006400000800002FFB5054604464035687883B057
:10065000202872D10C98002814D00D98002811D0B1
:100660002878012869D001202870FFF741FF07464C
:10067000012200901923D103204601F0B9F9002886
:1006800071D103E00120400260646CE021206870B9
:100690004020A870002666640C9860620D98608502
:1006A00066630E980090019704A90EC9204601F0D8
:1006B0005BF9002801D02E7055E0608DFF2805D928
:1006C000FF22228501231B06009606E0608D20850F
:1006D0000096208D0123C2B25B062046049901F0EA
:1006E00073F93A4620460E9901F0CFF900283AD125
:1006F000606A216800788862606A401C6062608D70
:10070000401E6085208D401E80B22085618D0029AD
:100710001FD000281DD100970022802120460E9B6B
:1007200001F066F900281ED1608DFF2806D9FF224E
:10073000228501231B06009607E024E0608D2085BA
:100740000096208D0123C2B25B062046049901F079
:100750003BF9608D0028C4D13A4620460E9901F03D
:100760006EF9002802D0012007B0F0BD20682021DA
:10077000C16120684268054B1A4042606970AE70E2
:100780002E700020F0E70220EEE7000000E800FEF7
:1007900010B586B0044614216846FFF726FD1349BC
:1007A0002068884220D1124C616901204004014335
:1007B00061616169014003200591400200901220AF
:1007C000019001200290032003900420049009204E
:1007D0006946C006FFF7C6FDE169012040050143F7
:1007E000E161E1690140059106B010BD005400408F
:1007F00000100240024881680278891881607047C1
:100800004000002010B50648016810221143016025
:10081000002000F007F800F027F8002010BD0000CD
:100820000020024070B504460D4D7D202978C0009F
:10083000FFF756FC01460B480068FFF751FC00F03B
:1008400043FB002809D1042C07D200222146401E78
:1008500000F02AF800206C6070BD012070BD00001F
:10086000400000204C00002008B5084881690122A2
:1008700011438161816911400091C26901040A43F9
:10088000C261C0690840009008BD0000001002402D
:10089000002805DBC106C90E012088400149086017
:1008A0007047000000E100E010B501F097FE10BDB8
:1008B000F8B505460068354CC00352D5E0690026FE
:1008C000C00007D4E16920040143E161E16901400E
:1008D000012600912E480168C90510D401688215CF
:1008E00011430160FFF704FE074604E0FFF700FE36
:1008F000C01B642824D826480068C005F6D5206AA5
:1009000003273F02384020D06968394081421CD01B
:10091000206A226AB843012109040A432262226A3A
:100920008A4322622062C0070FD0FFF7E1FD0090EA
:1009300008E0FFF7DDFD0099411A1648814201D910
:100940000320F8BD206A8007F3D5206A6968B843A0
:1009500008432062002E04D0E16901200007814392
:10096000E1612878C00705D0206BA9688008800065
:10097000084320632878800605D5206B1021884322
:10098000E968084320630020F8BD00000010024021
:100990000070004088130000F8B50F46060059D0DB
:1009A0003A4D2868C007C00FB84209D228684008ED
:1009B0004000384328602868C007C00FB84249D1BA
:1009C0003068334C81070CD5400704D56068072197
:1009D0000902084360606068F0218843B1680843F9
:1009E00060603078C00726D0706801280ED021687A
:1009F00002280ED0890700292CDA6168890889004D
:100A000001436160FFF774FD00900DE021688903E8
:100A1000F1E78901EFE7FFF76BFD0099411A1D48E7
:100A2000814201D90320F8BD60680C21084071683B
:100A300089008842EFD12868C007C00FB8420BD99F
:100A4000286840084000384328602868C007C00F65
:100A5000B84201D00120F8BD3078400706D5606863
:100A6000072109028843F1680843606000F028F814
:100A70006168094A0906090F515CC84007490860C6
:100A80000020FFF7CFFE0020F8BD0000002002404C
:100A90000010024088130000883200084C0000203B
:100AA0000448054900684968044A4905490F515CF2
:100AB000C84070474C0000200010024098320008E7
:100AC00010B514A30FCB88B06C460FC415A30FCB81
:100AD0000FC4184A51680C200B4603401648042BDB
:100AE00016D0082B14D18B021B0F6C46E45CD26A23
:100AF00004AB1207120F9A5CC90305D500231946EF
:100B0000FFF718FB214601E020460C4901F04EFD9D
:100B100008B010BD02030405060708090A0B0C0DF6
:100B20000E0F10100102030405060708090A0B0C3A
:100B30000D0E0F100010024000127A0000093D0057
:100B4000FEB5040070D02078DC4DC0074AD068683C
:100B50000007800F012807D068680007800F02286F
:100B600009D16868C00306D5286880033AD5606853
:100B70000028E7D036E06168012914D00120800404
:100B8000002901D0052914D02A68012109048A43CB
:100B90002A602968814329606068002816D0FFF721
:100BA000A7FC06460EE028680121090408432860D6
:100BB000F2E7296801432960F5E7FFF799FC801BFC
:100BC00064286ED828688003F7D50BE0FFF790FC07
:100BD000064604E0FFF78CFC801B6428F1D82868E7
:100BE0008003F7D420780126800700283CDA686863
:100BF0000007800F07D068680007800F022809D11E
:100C00006868C00306D42868800716D5E068012804
:100C10000AD112E0E0680028286816D03043286026
:100C2000FFF766FC074605E043E1FFF761FCC01BE8
:100C30000228C6D828688007F7D52868F821884395
:100C40002169C900084328600EE040084000286080
:100C5000FFF74EFC074604E0FFF74AFCC01B0228E2
:100C6000AFD828688007F7D42078000722D5E0693C
:100C70000028686A0ED030436862FFF739FC0746E7
:100C800004E0FFF735FCC01B02289AD8686A800789
:100C9000F7D50FE0400840006862FFF729FC0746DF
:100CA00005E09DE0FFF724FCC01B022889D8686A94
:100CB0008007F7D4207804274007002860DA002056
:100CC0000190E869C00008D4E969B8060143E96108
:100CD000E969014001200091019079480168C90546
:100CE00011D40168821511430160FFF701FC0090E7
:100CF00005E0FFF7FDFB0099401A642870D87048A2
:100D00000068C005F5D5A06801280AD0002801D0E8
:100D1000052810D0286A400840002862286AB84395
:100D200001E0286A30432862A068002812D0FFF74B
:100D3000DFFB00900AE0286A38432862F1E7FFF7FA
:100D4000D7FB0099411A5F48814249D8286A800739
:100D5000F5D50DE0FFF7CCFB009006E0FFF7C8FBF0
:100D60000099411A574881423AD8286A8007F5D439
:100D70000198002804D0E969012000078143E96156
:100D80002078C00635D5606901280CD0401D686BFD
:100D900023D038436863686B400840006863FFF7FE
:100DA000A7FB064622E0686B38436863686B3043F4
:100DB0006863FFF79DFB064604E0FFF799FB801B85
:100DC00002285BD8686B8007F7D5686BF8218843E9
:100DD000A169C900084368630BE0B8436863F4E79E
:100DE0004CE0FFF785FB801B022847D8686B800723
:100DF000F7D4206A00285ED069680907890F0229A4
:100E000042D0012636060228286805D0B043286063
:100E1000FFF76EFB044633E0B0432860FFF768FB42
:100E2000074604E0FFF764FBC01B022826D82868A9
:100E30008001F7D4E86AE16A000900010843E8622A
:100E4000616AA06A084369683D221204914308431D
:100E50006860286830432860FFF74AFB044604E0D6
:100E6000FFF746FB001B022808D828688001F7D549
:100E700021E0FFF73DFB001B022801D90320FEBD46
:100E800028688001F5D416E00128F8D06868E96A7E
:100E900001221204636A02409A420AD10907E26AF7
:100EA000090F914205D10F2189040840A16A8842A7
:100EB00001D00120FEBD0020FEBD00000010024058
:100EC0000070004088130000094910B5401E884298
:100ED00001D9012010BD074C60610321081F01F0FA
:100EE0007DFB0020A06107202061002010BD0000D4
:100EF000FFFFFF0000E000E070477047F0B50246DA
:100F00002032137F012B1BD0012616770223537743
:100F100005686B68AC687027BB430F681F436F6040
:100F20000068084B984202D0074B984204D18023B6
:100F300049689C4321438160567700201077F0BDBB
:100F40000220F0BD002C01400004004070B50400F8
:100F500005D025462035687F002802D006E0012014
:100F600070BD00202877204600F014F80220687732
:100F7000211D206800F060FF01204034A071A87797
:100F8000E87720706070A070E07020716071687701
:100F9000002070BD08B5214A0168214891420DD159
:100FA0008269C1140A43826180690022084000906E
:100FB00011460D20FFF778FC0D200FE0194A9142F1
:100FC0000FD1C26902210A43C261C06900220840F0
:100FD000009011461020FFF767FC1020FFF758FC27
:100FE00008BD114A914207D1C26989150A43C261FD
:100FF000C0690840009008BD0C4A9142FBD182694B
:10100000012149040A43826180690022084000905E
:1010100011461520FFF748FC1520DFE7002C0140A2
:101020000010024000040040002000400044014045
:10103000014620314A7F012A01D001207047022257
:101040004A770268D36801210B43D3600068084ADD
:10105000904202D0074A904204D182685207520F50
:10106000062A02D002680A4302600020704700008E
:10107000002C014000040040F8B505460446203528
:10108000287F012817D001262E7702206877226852
:1010900090687727FF23B8431B02984390600A6843
:1010A000502A31D00EDC202A4BD006DC002A48D052
:1010B000102A3AD145E00220F8BD302A41D0402A1A
:1010C00033D136E0602A27D0702A12D001200003E5
:1010D000121A2AD0824228D1CB684A6889682068CF
:1010E00000F0F3FE206881680122920311438160C1
:1010F0001BE0CB684A688968206800F0E6FE21683A
:1011000088683843886010E0CA684968206800F041
:10111000D1FF5021206806E0CA684968206800F0C5
:10112000DAFF6021206800F0DBFE6E770020287770
:10113000F8BDCA684968206800F0BCFF40212068FB
:10114000F1E711462068EEE7704770B50446006885
:1011500001690025C9438907002915DBC168C94316
:10116000890711D4E91E0161012020772068806978
:101170008007204602D0FFF7E7FF04E000F0BEF84A
:10118000204600F045F9257720680169C9434907E1
:1011900017D4C168C943490713D40421C943016165
:1011A00002202077206880698005800F204602D0C9
:1011B000FFF7CAFF04E000F0A1F8204600F028F98C
:1011C000257720680169C943090716D4C168C94356
:1011D000090712D40821C94301610420207720683F
:1011E000C0698007204602D0FFF7AEFF04E000F0A0
:1011F00085F8204600F00CF9257720680169C9437D
:10120000C90617D4C168C943C90613D41021C943FC
:101210000161082020772068C0698005800F204682
:1012200002D0FFF791FF04E000F068F8204600F0DC
:10123000EFF8257720680169C943C90708D1C1685B
:10124000C943C90704D1891E0161204600F030F965
:1012500020680169C943090609D4C168C943090660
:1012600005D48021C94301612046FFF745FE20686F
:101270000169C943490609D4C168C943490605D46F
:101280004021C9430161204600F050F920680169FE
:10129000C943890609D4C168C943890605D42021F8
:1012A000C94301612046FFF728FE70BD10B586B026
:1012B000044614216846FEF798FF0E4920688842CC
:1012C00015D10D48426909010A434261406908404D
:1012D00005901020009002200190002002900390C1
:1012E0000420049009206946C006FFF73BF806B0C9
:1012F00010BD000000200040001002407047F8B50B
:10130000064604462036307F0D4601280BD00120CA
:1013100008273077002A08D0042A16D0082A2AD0B5
:101320000C2A4DD137E00220F8BD206800F0E0FD26
:101330002068816939438161206881690422914371
:101340008161206881692A6912E0206800F00CFE42
:10135000206881690122D20211438161206882697B
:10136000012189028A438261206881692A69120207
:101370001143816124E0206800F030FE2068C169DB
:101380003943C1612068C16904229143C161206869
:10139000C1692A6912E0206800F05CFE2068C1691A
:1013A0000122D2021143C1612068C2690121890270
:1013B0008A43C2612068C1692A6912021143C1616E
:1013C00000203077F8BD70B5040005D025462035E3
:1013D000687F002802D006E0012070BD0020287739
:1013E000204600F014F802206877211D206800F0E4
:1013F00023FD01204034A071A877E8772070607049
:10140000A070E070207160716877002070BD704737
:101410007047000010B504460222203000290AD08F
:1014200004290DD02046403008290ED04378012BE6
:1014300010D0012010BD837F012BFAD182770AE002
:10144000C37F012BF5D1C27705E00378012BF0D1E2
:10145000027000E042700122206800F029FD10496E
:101460002068884205D00F4A904202D00E4A90422E
:1014700004D1426C0123DB031A4342642068012239
:10148000884202D00949884204D181684907490F3E
:10149000062902D0016811430160002010BD000040
:1014A000002C01400044014000480140000400407D
:1014B00070B5044600681849884214D109202021DB
:1014C000C006FFF707F81549154A08781568430064
:1014D000EB62D36012685063401CC0B208701F28D2
:1014E00001D30A2008700D490E4B206800220C31F0
:1014F000984205D10868801D0860792800DB0A60E1
:10150000094B2068984205D1486808304860352862
:1015100000DB4A6070BD0000002C0140100000207C
:10152000A8080020000400400044014070477047B4
:1015300070470000F8B502680446D06911689668E3
:101540007B4B05461D402023002D6CD0F707794DBD
:10155000FF0FBC460D402F4379D02546C707803585
:10156000002F06D0CF0504D5012717622A683A4319
:101570002A60820708D5F20706D0276802223A625D
:101580002A6804273A432A60420708D5F20706D0A2
:101590002668042232622A68022632432A60020741
:1015A0000AD50A461A406646324305D02668082204
:1015B00032622E6816432E60020508D54A0106D510
:1015C00001222668D20232622A681A432A602A68F7
:1015D000002A30D0800606D5880604D5616E002921
:1015E00001D020468847286821688968490602D4C6
:1015F0002821084225D0204600F022FE206881687C
:10160000490619D5826840218A438260206F0028EC
:1016100012D049494163206FFEF746FE00280AD0E8
:10162000206F416B06E0850611D58D060FD5616EE2
:101630006BE020468847F8BD2046FFF779FFF8BDEC
:1016400005E02046FFF774FF00202860F7E7256ECD
:10165000012D55D1C50653D5CD0651D5102616629C
:1016600020688168254649064035002929DA226F1D
:10167000116849680904090CE1D02F8B8F42DED92B
:1016800069839169202917D0016832019143016073
:10169000206881684908490081602068826840218B
:1016A0008A438260E3670020206620680168B143B6
:1016B0000160206FFEF7D8FD288B698B401A81B23C
:1016C0001AE0298B6A8B891A6A8B89B2002AB6D0F4
:1016D0000029B4D00268FF252135AA4302602068A2
:1016E0008268520852008260E367002020666066CC
:1016F00020680268B24302602046FFF718FF9EE7A9
:10170000050605D50D0603D5A16E002991D196E7F2
:10171000400694D5480692D52046146840218C4353
:10172000146083670021816600F0D2F887E700002B
:101730000F080000200100042D22000810B504004D
:1017400003D0A06F002802D007E0012010BD0021C7
:1017500074200155204600F027F82420A067206857
:101760000168490849000160204600F0F9FD0128A0
:10177000ECD0606A002802D0204600F0BFFC206850
:1017800041680122D20291434160206881680822A9
:101790009143816020680168012211430160204665
:1017A00000F012FD10BD000010B586B004461421F3
:1017B0006846FEF71AFD16492068884226D115486A
:1017C0008269012189030A43826182690A40059284
:1017D0004269C9000A4342614069084005900C20F3
:1017E000009002200190002002900320039001202D
:1017F000049009206946C006FEF7B4FD0022114698
:101800001B20FFF751F81B20FFF742F806B010BD70
:10181000003801400010024030B5C36F202B24D1A6
:1018200000290BD0002A09D0012483682403A34295
:1018300006D10369002B03D1CB0701D0012030BDB5
:10184000034660331C7D012C0FD001241C7500233E
:10185000036603685C68240204D51C680125AD0694
:101860002C431C6000F00AFE30BD022030BD000099
:1018700010B50068134988421DD1134A117A1046E9
:10188000007C312906D0322908D033290BD03429E5
:101890000DD010E001280ED0042002E004280AD068
:1018A0000120106007E0032805D00220F9E7022894
:1018B00001D00320F5E70449012208310348FFF76E
:1018C000ABFF10BD003801402C000020380900207B
:1018D0007047FEE701688A69D243920701D400226B
:1018E0008A6200688169C943C90703D081690122FE
:1018F0001143816170470000F7B5044600680E4649
:101900008069C043C0062BD4202725464035206877
:101910008069C043800612D5701CF8D0FEF7E8FD40
:101920000299401AB04201D8002EF0D1606C3843C1
:1019300060646F700020A87028700120FEBD2168CF
:101940001020C8612068C7612046FFF7C3FF2068E8
:101950004168044A11404160606C04210843E7E794
:101960000020FEBD00E800FEF8B504461646154806
:101970001D46DAB2C3020090079F204600F024F80B
:101980003A462046069900F080F8002818D12846EB
:10199000F5B2012809D02168300A88623A4620460B
:1019A000069900F072F800280AD120688562009735
:1019B000002280212046069B00F01AF8002800D063
:1019C0000120F8BD00200080F0B50668059C756810
:1019D000064F600D384385438805800D1104084388
:1019E0001843204305437560F0BD0000FF63FF030B
:1019F000F8B51D4617460E46044609E0681C07D098
:101A0000FEF776FD0699401AA8420BD8002D09D0A2
:101A100020688169304688430FD00020B842EDD05D
:101A20000020F8BD616C2020014361644034607087
:101A30000020A07020700120F8BD0120EEE770B5F5
:101A400016460D4604460FE0324629462046FFF76B
:101A500053FF002801D0012070BDFEF749FD801B17
:101A6000A84208D8002D06D020688069C0438006AF
:101A7000EAD4002070BD616C2020014361644034D1
:101A800060700020A0702070E5E770B516460D4626
:101A9000044611E0324629462046FFF72DFF002874
:101AA00001D0012070BD681C06D0FEF721FD801B0F
:101AB000A84208D8002D06D020688069C04380075E
:101AC000E8D4002070BD616C202001436164403483
:101AD00060700020A0702070E3E7000070B586B051
:101AE00014216846FEF781FB21484269012149041F
:101AF0000A43426142690A400592426949000A4329
:101B00004261406909260840F6060590002220211E
:101B10003046FEF7E7FCC120164C01256A4631C26B
:101B200069463046FEF71EFC0021202002910391F9
:101B30000090019569463046FEF714FC02206A4683
:101B400031C269460C48FEF70DFC00221146052003
:101B5000FEF7AAFE0520FEF79BFE00221146072095
:101B6000FEF7A2FE0720FEF793FE06B070BD000050
:101B700000100240000021100004004810B5134876
:101B80001149016012494160002181600161416198
:101B900081610122C161C2600162FEF7F9FC002887
:101BA00001D0FEF75FFB00210848FEF7A7FC0028E4
:101BB00001D0FEF757FB00210448FEF7C4FC0028C3
:101BC00001D0FEF74FFB10BD00540040CC070020B1
:101BD0000B02000010B588B01C216846FEF705FB1B
:101BE00016481549016000247F218460416004612A
:101BF0001E218461C160FFF7A9F9002801D0FEF71A
:101C000031FB0E48FFF7DFFB002801D0FEF72AFB6F
:101C100060200090019402940022694604940748D1
:101C2000FFF76DFB002801D0FEF71CFB0348FFF710
:101C30003DFB08B010BD000000200040A8080020B7
:101C400010B50A48084901600949416000218160D6
:101C5000016113224161C2608161FFF777F90028B9
:101C600001D0FEF7FFFA10BD00440140F00800204B
:101C70003F1F000010B586B000240094174801945F
:101C800002940394049414490594016014498460F7
:101C900041600461446163218461C160FFF756F9CA
:101CA000002801D0FEF7DEFA01200003009069460B
:101CB0000A48FFF7E1F9002801D0FEF7D3FA0494AF
:101CC00004A906480594FFF719F9002801D0FEF78A
:101CD000C9FA06B010BD0000002C01401808002011
:101CE0003F1F000010B586B00024009416480194F0
:101CF0000294039404941349059401601349846089
:101D00004160046122218461C160FFF71FF900284E
:101D100001D0FEF7A7FA01200003009069460A48A7
:101D2000FFF7AAF9002801D0FEF79CFA049404A951
:101D300005480594FFF7E2F8002801D0FEF792FA73
:101D400006B010BD00040040600800203F1F0000E6
:101D500010B50C480A4901604B21C90141600021BE
:101D60008160C16001618161C1610C2201624261D7
:101D70004162FFF7E3FC002801D0FEF773FA10BDC3
:101D80000038014038090020FEE77047704710B561
:101D9000FEF730FD10BD10B594B030216846FEF757
:101DA00024FA00240F9402200D9400901294012034
:101DB00003900E94139410200C940490109411949A
:101DC00008946846FEF7BCFE002801D072B6FEE714
:101DD00007200C900D940E9400210F940CA8FEF790
:101DE000DBFD002801D072B6FEE72120109012948E
:101DF000139410A8FEF75CFD002801D072B6FEE730
:101E000014B010BD7047000010B50248FFF79DF9EF
:101E100010BD0000F008002010B50248FFF795F94A
:101E200010BD00001808002010B50248FFF78DF91A
:101E300010BD00006008002070B50268174B184EF6
:101E4000984201D0B04203D17024A2434C6822438F
:101E5000144C154D984208D0B04206D0134EB042F3
:101E600003D0A04201D0A84204D103263602B243D7
:101E7000CE6832438026B2434E69324302608A689C
:101E8000C2620A688262984203D0A04201D0A8428E
:101E900001D1096901630121416170BD002C01403C
:101EA0000004004000440140004801400020004080
:101EB00010B5CB06DB0E0121046A99408C43046205
:101EC000016A9A401143016210BD30B58468FF2554
:101ED0002D021B021343AC430B432343836030BDED
:101EE000826870239A430A4307210A43826070473D
:101EF000F0B5026A520852000262056A43688269BC
:101F00007024A24392080C68920014430222954365
:101F10008A68134E2A43114DA84204D0B04202D021
:101F2000104FB84206D10827BA43CF68174304229E
:101F300097433A46A84204D0B04202D0094DA84285
:101F400006D103252D02AB434D691D438B692B43FD
:101F500043608461496841630262F0BD002C014026
:101F6000004401400048014070B5026A10239A43C2
:101F70000262046A4368826973252D02AA430D68D0
:101F80002D021543202294438A6812012243104CEB
:101F9000A04208D11446CA688026B44312012243E5
:101FA0004024A24305E00B4CA04202D00A4CA042C0
:101FB00008D10324A402A3434C69A4001C438B69E9
:101FC0009B0023434360856149688163026270BD61
:101FD000002C0140004401400048014070B5026AF5
:101FE000FF2301339A430262046A4368C269702581
:101FF000AA4392080D6892001543012252029443AD
:102000008A6812022243104CA04207D1C414A24392
:10201000CC68240222430615B24305E00B4CA042D3
:1020200002D00B4CA04208D103242403A3434C69E3
:1020300024011C438B691B0123434360C56149682C
:10204000C163026270BD0000002C014000440140E9
:102050000048014030B5026A01231B039A43026223
:10206000056A4268C36973242402A3430C682402EE
:102070001C4301235B039D438B681B032B430A4DC9
:10208000A84205D0094DA84202D0094DA84205D169
:102090000125AD03AA434D69AD012A434260C461E5
:1020A00049680164036230BD002C014000440140D6
:1020B0000048014030B5036A046A640864000462A1
:1020C0008469F025AC43120122430A24A3430B4345
:1020D0008261036230BD30B5036A1024A3430362FA
:1020E0008469036A0F252D031203AC432243A02405
:1020F000A343090119438261016230BD10B5818C8F
:10210000C90707D001684A6801235B049A43836AC0
:102110001A434A60818C890707D501684A68012300
:102120001B049A43C36A1A434A60818C490707D546
:1021300001684A6801239B049A43036B1A434A606F
:10214000818C090707D501684A680123DB039A439C
:10215000436B1A434A60818CC90607D502689168AF
:1021600001231B039943836B19439160818C89067A
:1021700007D501688A6801235B039A43C36B1A433E
:102180008A60818C490612D503685A6801210905C5
:10219000046C8A4322435A60026C8A4207D1026867
:1021A000516803235B059943436C19435160818C4B
:1021B000090607D501684A680123DB04806C9A434D
:1021C00002434A6010BD0000F8B504460026803086
:1021D0000660FEF78DF9054620680068124F00077B
:1021E00009D501212B46002249052046009700F021
:1021F00085F900280DD12068006840070BD5012122
:102200002B46002289052046009700F077F9002828
:1022100001D00320F8BD2020A067E0672666603467
:1022200026750020F8BD0000FFFFFF0110B5406AD1
:102230000022014640314A834A82FFF779F910BDF6
:1022400001680A68FF2321339A430A6001688A689B
:10225000520852008A60016E012904D101680A689F
:1022600010239A430A602021C1670021016641665C
:10227000704770B504464030828BE36F2168222B93
:1022800004D0886908221043886170BD898C636D11
:1022900011401980616D891C6165418B491E418324
:1022A000418B0029F1D121680A68FF2321339A4329
:1022B0000A6021688A68520852008A602021E1671A
:1022C00000256566216E012904D02046FFF7D0FA6B
:1022D000256670BD21680A6810239A430A60018B45
:1022E0002046FFF724F9F3E770B504464030828BAF
:1022F000E36F2168222B04D088690822104388618B
:1023000070BD898C1140626D1170616D491C6165F1
:10231000418B491E4183418B0029F1D121680A6814
:10232000FF2321339A430A6021688A6852085200C9
:102330008A602021E16700256566216E012904D0AD
:102340002046FFF795FA256670BD21680A681023BC
:102350009A430A60018B2046FFF7E9F8F3E7000093
:1023600070B5044680682169E26908436169002507
:102370001143084321680A683C4B1A4002430A6033
:1023800021684868032212039043E26810434860C2
:10239000A169206A084321688A680B231B029A43BB
:1023A00002438A603248006B8007800F16D00128F4
:1023B00018D0022818D0032812D010210120E36978
:1023C000C0032C4A2C4E83422BD100290ED0022967
:1023D0000FD004290FD008293FD110E00021EDE7EC
:1023E0000221EBE70421E9E70821E7E7FEF758FBC4
:1023F00003E0104603E0FEF763FB002831D061687C
:1024000040004A088018FDF76BFE80B20146103983
:10241000B14222D81849491C01400007400F084327
:102420001DE0002906D0022907D0042907D0082979
:1024300013D108E0FEF734FB03E0104603E0FEF79B
:102440003FFB00280DD061684A081018FDF748FED0
:1024500080B201461039B14201D9012501E021685D
:10246000C86000206066A066284670BDF369FFFF63
:102470000010024000127A00EFFF000030B5416505
:10248000014640310A834A8300224266012385685F
:102490001B03FF249D4204D10569002D23D1144C58
:1024A00021E0002D1BD08A8380210A502221C167A0
:1024B00001688C6801252C438C608168994202D1A7
:1024C0000169002911D00B49416674210A54006842
:1024D0000168FF22213211430160002030BD0569EF
:1024E000002D00D07F248C83DEE70349ECE7000059
:1024F000FF010000E922000873220008FFB581B047
:1025000005460F46044660350A9E39E0701C37D0F8
:10251000FDF7EEFF0499401AB04222D8002E20D0D9
:102520002068016849072BD5C069C043000527D43E
:1025300001202168C002086220680168FF22A132E0
:10254000914301602068816849084900816020202A
:10255000A067E0678034206000202875032005B064
:10256000F0BD20680168FF22A1329143016020681C
:1025700081684908490081602020A067E067EBE797
:102580002068C1693846884305D0002103988142FC
:10259000BCD00020E3E70121F8E7000010B50248B5
:1025A000FEF7C8FF10BD000038090020F8B5040C84
:1025B0008BB2264682B25E430D0C1046370C584350
:1025C000360480190021794116466E43370C3604D3
:1025D0008019794126466E438919F8BD8307FF2289
:1025E000DB0E9A408907090E9940002808DB830812
:1025F00009489B001B1818689043084318607047EF
:102600000007000F0838830804489B001B18D8698E
:1026100090430843D861704700E400E000ED00E01B
:1026200002E008C8121F08C1002AFAD1704770479B
:10263000002001E001C1121F002AFBD170470000F9
:10264000F8B50026FF27344D344C5F37002000F0EA
:1026500009FA3846FDF74CFE0021084600F07AFAE8
:102660000120FDF745FE06CD01232DA0083D00F019
:10267000FDFA64216078FDF733FD3030A070282129
:10268000002000F067FA06CD012328A0083D00F0E5
:10269000EDFA2821492000F05DFA06CD0123A0784B
:1026A000083D00F077FA64216078FDF719FD0846CF
:1026B0000A21FDF715FD3030A0702821502000F0D0
:1026C00049FA06CD0123A078083D00F063FA0A21FB
:1026D0006078FDF705FD3031A1702821572000F00A
:1026E00039FA06CD0123A078083D00F053FA00F036
:1026F00037FA761C042EA9DD0120A0600E490020C7
:10270000082205C105491C310860486008746070E2
:1027100000F0E2F8F8BD00000800002010000020E2
:1027200047616D65204F766572000000596F7572C4
:102730002053636F7265000054040020F8B5002038
:1027400000F090F9604E614C354630681C3D012820
:1027500005D0022803D0032801D004283DD1A96860
:102760000AE0CB001A191746803FBC46BF6FE750FE
:102770006746FB6F491E53600029F2DC012806D032
:10278000022809D003280ED0042811D009E02068BF
:10279000801D2060012003E060680838606002202E
:1027A0003074012716E06068083060600320F7E7A6
:1027B0002068801F20600420F2E7F800215822687A
:1027C000914206D1001940686168884201D1FFF743
:1027D00037FF7F1CA8688742EFDD3B482168083837
:1027E0000068814241D138486168083840688142B8
:1027F0003BD168783449401C687010390846093864
:102800000A78027009794170012720E02E48FB0008
:102810001938E1580278914218D11919496840785D
:10282000814213D10127FDF7C7FC1421FDF76EFC8F
:1028300006204143244819380170FDF7BDFC0621EC
:10284000FDF764FCC8002049193948707F1CA8684E
:102850008742DBDD1C4819380146027811310A60D5
:1028600040784860A868401CA86000270CE0F80089
:1028700001190979205C00F06DF91548012306C89B
:1028800014A000F0F3F97F1CA8688742EFDB0E4824
:1028900008380179007800F05DF90D48012306C879
:1028A0000CA000F0E3F900F05BF9F068FDF720FD03
:1028B0002068782804D26068352801DC002801DA15
:1028C000FFF7BEFEF8BD00002C00002054040020DD
:1028D000080000202E00000010B5064C606800289B
:1028E00001D100F009F86068012801D1FFF726FF47
:1028F00010BD00002C00002070B5002000F0B2F8E0
:102900000025144C29462846256000F023F90120B3
:10291000FDF7EEFC104E012306CE10A0083E00F09D
:10292000A5F92821002000F015F906CE01230FA0FB
:1029300000F09CF900F014F92068022808D0032860
:1029400005D1FF20F530E06001202560606070BD9A
:102950006420F8E72C00002008000020456173790E
:10296000202D3E20446F776E0000000048617264A5
:10297000202D3E2055700000FDF71EFC1421FDF7B0
:10298000C5FB06201F4C41432160FDF715FC0621C5
:10299000FDF7BCFBC80060601B48002101600821F6
:1029A0004160FDF72FFFFFF7F6F9FFF797F8FFF704
:1029B000E5F8FFF7CDF9FFF75DF9FFF70BF9FFF742
:1029C00091F9FFF73DF91148FEF732FB1048FEF789
:1029D0002FFB1048FEF72CFB00F056F809200122CF
:1029E0002021C006FDF77EFD2146012210310A4854
:1029F000FEF712FF00210948FEF70CFDFFF76CFF00
:102A0000FCE70000240000205404002018080020E7
:102A100060080020F008002038090020A8080020E5
:102A200070B5802815D2402913D24D0701246D0FAF
:102A30000A4BAC40C9081E79C901094B0818002E81
:102A400002D0002A06D001E0012A03D0195CA1437C
:102A5000195470BD195C2143FAE700000000002002
:102A60005400002010B50021064B012292020028DC
:102A700005D0FF245C54491C9142F8D310BD0024BA
:102A8000F8E700005400002010B56420FDF730FC8A
:102A9000AE2000F0C7F8202000F0C4F8102000F0AD
:102AA000C1F8B02000F0BEF8C82000F0BBF800204C
:102AB00000F0B8F8102000F0B5F8402000F0B2F8AF
:102AC000812000F0AFF8FF2000F0ACF8A12000F06A
:102AD000A9F8A62000F0A6F8A82000F0A3F83F204F
:102AE00000F0A0F8A42000F09DF8D32000F09AF8A0
:102AF000002000F097F8D52000F094F8F02000F0C6
:102B000091F8D92000F08EF8222000F08BF8DA201E
:102B100000F088F8122000F085F8DB2000F082F841
:102B2000202000F07FF88D2000F07CF8142000F0C9
:102B300079F8AF2000F076F80020FFF793FF00F05F
:102B40000FF803480021018041800121417110BD2F
:102B500000000020014A10805180704700000020D2
:102B600070B50B4D00242046B030C0B200F05AF8CA
:102B7000002000F057F8102000F054F8E001401950
:102B8000802100F063F8641CE4B2082CEBD370BD24
:102B900054000020FFB581B021486A460188177AA9
:102BA000C919802904D24088567A8019402802D356
:102BB000002005B0F0BD002528E0019930462039FD
:102BC000484340194000039A0024105A00901AE02C
:102BD0000098A040000408D51148049A8178007834
:102BE00049190019C9B2C0B20AE00498002815D0EA
:102BF00000220B488178007849190019C9B2C0B287
:102C0000FFF70EFF641CA742E2D86D1CAE42D4D879
:102C100003480188C91901800198CAE70122E8E741
:102C20000000002001B584B000220121D24304A895
:102C30000B46029201910090002278210248FDF794
:102C400001FD05B000BD0000CC0700200EB500223C
:102C5000D24389B20292019100900123402278214F
:102C60000148FDF7EFFC0EBDCC070020F0B51D4676
:102C70000E46174604460AE02B463A463146FFF711
:102C800089FF2178884201D0C8B2F0BD641C207849
:102C90000028F1D1C0B2F0BD00000000000000002B
:102CA00000000000000000000020002000200020A4
:102CB00000200000002000000050005000500000E4
:102CC00000000000000000000050005000F800501C
:102CD00000F80050005000000020007800A00070B4
:102CE000002800F00020000000C000C800100020F4
:102CF0000040009800180000004000A000A0004024
:102D000000A8009000680000003000300020004063
:102D10000000000000000000001000200040004003
:102D200000400020001000000040002000100010B3
:102D30000010002000400000002000A8007000F8F3
:102D4000007000A80020000000000020002000F813
:102D50000020002000000000000000000000000033
:102D6000003000300020000000000000000000F8EB
:102D70000000000000000000000000000000000053
:102D800000000000003000300000000800100020AB
:102D9000004000800000000000700088009800A83B
:102DA00000C80088007000000020006000200020A3
:102DB00000200020007000000070008800080070F3
:102DC0000080008000F8000000F8000800100030CB
:102DD00000080088007000000010003000500090D3
:102DE00000F800100010000000F8008000F000085B
:102DF000000800880070000000380040008000F0EB
:102E0000008800880070000000F80008000800102A
:102E100000200040008000000070008800880070E2
:102E2000008800880070000000700088008800782A
:102E30000008001000E0000000000000002000007A
:102E40000020000000000000000000000020000042
:102E5000002000200040000000080010002000407A
:102E600000200010000800000000000000F8000032
:102E700000F80000000000000040002000100008E2
:102E800000100020004000000070008800080030A2
:102E900000200000002000000070008800A800B89A
:102EA00000B00080007800000020005000880088FA
:102EB00000F800880088000000F00088008800F01A
:102EC0000088008800F0000000700088008000800A
:102ED000008000880070000000F0008800880088F2
:102EE0000088008800F0000000F80080008000F0FA
:102EF0000080008000F8000000F80080008000F0F2
:102F00000080008000800000007800880080008041
:102F1000009800880078000000880088008800F889
:102F20000088008800880000007000200020002039
:102F30000020002000700000003800100010001079
:102F400000100090006000000088009000A000C009
:102F500000A00090008800000080008000800080B9
:102F60000080008000F80000008800D800A800A8B9
:102F700000A80088008800000088008800C800A819
:102F80000098008800880000007000880088008891
:102F9000008800880070000000F00088008800F0C1
:102FA0000080008000800000007000880088008899
:102FB00000A800900068000000F00088008800F081
:102FC00000A0009000880000007000880080007061
:102FD000000800880070000000F800A80020002011
:102FE0000020002000200000008800880088008861
:102FF0000088008800700000008800880088008831
:10300000008800500020000000880088008800A888
:1030100000A800A800500000008800880050002090
:1030200000500088008800000088008800500020C0
:10303000002000200020000000F8000800100070B0
:103040000040008000F80000007800400040004090
:103050000040004000780000000000800040002098
:1030600000100008000000000078000800080008B8
:1030700000080008007800000020005000880000D0
:103080000000000000000000000000000000000040
:103090000000000000F80000006000600020001048
:1030A00000000000000000000000000000600010B0
:1030B00000700090007800000080008000B000C820
:1030C000008800C800B00000000000000070008808
:1030D0000080008800700000000800080068009868
:1030E0000088009800680000000000000070008860
:1030F00000F8008000700000001000280020007020
:103100000020002000200000000000000070009857
:1031100000980068000800000080008000B000C82F
:103120000088008800880000002000000060002067
:1031300000200020007000000010000000100010AF
:10314000001000900060000000800080009000A04F
:1031500000C000A0009000000060002000200020BF
:1031600000200020007000000000000000D000A837
:1031700000A800A800A800000000000000B000C8DF
:1031800000880088008800000000000000700088AF
:1031900000880088007000000000000000B000C837
:1031A00000C800B000800000000000000068009827
:1031B00000980068000800000000000000B000C88F
:1031C0000080008000800000000000000078008087
:1031D0000070000800F000000020002000F800202F
:1031E0000020002800100000000000000088008877
:1031F0000088009800680000000000000088008837
:1032000000880050002000000000000000880088B6
:1032100000A800A800500000000000000088005036
:103220000020005000880000000000000088008896
:1032300000780008008800000000000000F800107E
:103240000020004000F80000001000200020004096
:1032500000200020001000000020002000200000BE
:10326000002000200020000000400020002000106E
:103270000020002000400000004000A800100000D6
:10328000000000000000000000000000000000003E
:1032900001020304060708090000000001020304FC
:1032A000C032000800000020540000002026000862
:1032B00014330008540000206C0D00003026000874
:1032C000000000000000000006080000982C000824
:1032D0000A000000000000000100000000000000E3
:1032E00008000000000000000000000000000000D6
:1032F0000000000000000000E803000000000000E3
:1033000001000000040000000000000000127A002C
:0433100000000000B9
:04000005080000B13E
:00000001FF
